{
  "contractName": "HealthcareAccessControl",
  "abi": [
    {
      "anonymous": false,
      "inputs": [
        {
          "indexed": false,
          "internalType": "string",
          "name": "description",
          "type": "string"
        }
      ],
      "name": "MedicalRecordAdded",
      "type": "event"
    },
    {
      "anonymous": false,
      "inputs": [
        {
          "indexed": false,
          "internalType": "string",
          "name": "description",
          "type": "string"
        }
      ],
      "name": "MedicalRecordDeleted",
      "type": "event"
    },
    {
      "anonymous": false,
      "inputs": [
        {
          "indexed": false,
          "internalType": "string",
          "name": "description",
          "type": "string"
        }
      ],
      "name": "MedicalRecordEdited",
      "type": "event"
    },
    {
      "anonymous": false,
      "inputs": [
        {
          "indexed": true,
          "internalType": "address",
          "name": "user",
          "type": "address"
        },
        {
          "indexed": false,
          "internalType": "string",
          "name": "reason",
          "type": "string"
        }
      ],
      "name": "RegistrationFailed",
      "type": "event"
    },
    {
      "anonymous": false,
      "inputs": [
        {
          "indexed": true,
          "internalType": "address",
          "name": "user",
          "type": "address"
        },
        {
          "indexed": false,
          "internalType": "string",
          "name": "name",
          "type": "string"
        }
      ],
      "name": "UserRegistered",
      "type": "event"
    },
    {
      "anonymous": false,
      "inputs": [
        {
          "indexed": false,
          "internalType": "string",
          "name": "reason",
          "type": "string"
        }
      ],
      "name": "accessError",
      "type": "event"
    },
    {
      "inputs": [],
      "name": "administrator",
      "outputs": [
        {
          "internalType": "address",
          "name": "",
          "type": "address"
        }
      ],
      "stateMutability": "view",
      "type": "function",
      "constant": true
    },
    {
      "inputs": [
        {
          "internalType": "string",
          "name": "_name",
          "type": "string"
        },
        {
          "internalType": "string",
          "name": "_email",
          "type": "string"
        },
        {
          "internalType": "string",
          "name": "_password",
          "type": "string"
        },
        {
          "internalType": "string",
          "name": "_role",
          "type": "string"
        },
        {
          "internalType": "string",
          "name": "_gender",
          "type": "string"
        },
        {
          "internalType": "uint256",
          "name": "_age",
          "type": "uint256"
        },
        {
          "internalType": "string",
          "name": "_secret",
          "type": "string"
        }
      ],
      "name": "register",
      "outputs": [
        {
          "internalType": "string",
          "name": "",
          "type": "string"
        }
      ],
      "stateMutability": "nonpayable",
      "type": "function"
    },
    {
      "inputs": [],
      "name": "login",
      "outputs": [
        {
          "internalType": "string",
          "name": "",
          "type": "string"
        },
        {
          "internalType": "string",
          "name": "",
          "type": "string"
        },
        {
          "internalType": "string",
          "name": "",
          "type": "string"
        }
      ],
      "stateMutability": "view",
      "type": "function",
      "constant": true
    },
    {
      "inputs": [],
      "name": "getProfile",
      "outputs": [
        {
          "internalType": "string",
          "name": "",
          "type": "string"
        },
        {
          "internalType": "string",
          "name": "",
          "type": "string"
        },
        {
          "internalType": "uint256",
          "name": "",
          "type": "uint256"
        },
        {
          "internalType": "string",
          "name": "",
          "type": "string"
        },
        {
          "internalType": "string",
          "name": "",
          "type": "string"
        }
      ],
      "stateMutability": "view",
      "type": "function",
      "constant": true
    },
    {
      "inputs": [],
      "name": "getSelfMedicalRecords",
      "outputs": [
        {
          "components": [
            {
              "internalType": "uint256",
              "name": "recordId",
              "type": "uint256"
            },
            {
              "internalType": "string",
              "name": "description",
              "type": "string"
            },
            {
              "internalType": "string",
              "name": "date",
              "type": "string"
            },
            {
              "internalType": "string",
              "name": "doctor",
              "type": "string"
            }
          ],
          "internalType": "struct HealthcareAccessControl.MedicalRecord[]",
          "name": "",
          "type": "tuple[]"
        },
        {
          "internalType": "string",
          "name": "",
          "type": "string"
        }
      ],
      "stateMutability": "view",
      "type": "function",
      "constant": true
    },
    {
      "inputs": [
        {
          "internalType": "string",
          "name": "_email",
          "type": "string"
        }
      ],
      "name": "getMedicalRecords",
      "outputs": [
        {
          "components": [
            {
              "internalType": "uint256",
              "name": "recordId",
              "type": "uint256"
            },
            {
              "internalType": "string",
              "name": "description",
              "type": "string"
            },
            {
              "internalType": "string",
              "name": "date",
              "type": "string"
            },
            {
              "internalType": "string",
              "name": "doctor",
              "type": "string"
            }
          ],
          "internalType": "struct HealthcareAccessControl.MedicalRecord[]",
          "name": "",
          "type": "tuple[]"
        },
        {
          "internalType": "string",
          "name": "",
          "type": "string"
        }
      ],
      "stateMutability": "nonpayable",
      "type": "function"
    },
    {
      "inputs": [
        {
          "internalType": "string",
          "name": "_email",
          "type": "string"
        },
        {
          "internalType": "string",
          "name": "_description",
          "type": "string"
        },
        {
          "internalType": "string",
          "name": "_date",
          "type": "string"
        },
        {
          "internalType": "string",
          "name": "_doctor",
          "type": "string"
        }
      ],
      "name": "addMedicalRecord",
      "outputs": [],
      "stateMutability": "nonpayable",
      "type": "function"
    },
    {
      "inputs": [
        {
          "internalType": "string",
          "name": "_email",
          "type": "string"
        },
        {
          "internalType": "uint256",
          "name": "_recordId",
          "type": "uint256"
        },
        {
          "internalType": "string",
          "name": "_description",
          "type": "string"
        },
        {
          "internalType": "string",
          "name": "_date",
          "type": "string"
        },
        {
          "internalType": "string",
          "name": "_doctor",
          "type": "string"
        }
      ],
      "name": "editMedicalRecord",
      "outputs": [],
      "stateMutability": "nonpayable",
      "type": "function"
    },
    {
      "inputs": [
        {
          "internalType": "string",
          "name": "_email",
          "type": "string"
        },
        {
          "internalType": "uint256",
          "name": "recordId",
          "type": "uint256"
        }
      ],
      "name": "deleteMedicalRecord",
      "outputs": [],
      "stateMutability": "nonpayable",
      "type": "function"
    }
  ],
  "bytecode": "0x608060405234801561001057600080fd5b50613f06806100206000396000f3fe608060405234801561001057600080fd5b50600436106100935760003560e01c8063cb6ca30911610066578063cb6ca30914610135578063d3d5fd0c14610151578063d6afc9b11461016d578063f53d0a8e1461018f578063f9ff487f146101ad57610093565b80633a0c8fb2146100985780639edecc2a146100b4578063b34e97e8146100e4578063ca08b7d114610104575b600080fd5b6100b260048036038101906100ad919061300e565b6101cc565b005b6100ce60048036038101906100c991906130d1565b610577565b6040516100db919061397e565b60405180910390f35b6100ec6109c2565b6040516100fb939291906139a0565b60405180910390f35b61011e60048036038101906101199190612fcd565b610e58565b60405161012c929190613947565b60405180910390f35b61014f600480360381019061014a9190613253565b611864565b005b61016b600480360381019061016691906131ff565b611d51565b005b61017561239d565b6040516101869594939291906139ec565b60405180910390f35b61019761285e565b6040516101a4919061392c565b60405180910390f35b6101b5612884565b6040516101c3929190613947565b60405180910390f35b6040516020016101db90613917565b604051602081830303815290604052805190602001206000803373ffffffffffffffffffffffffffffffffffffffff1673ffffffffffffffffffffffffffffffffffffffff16815260200190815260200160002060030160405160200161024291906138d6565b6040516020818303038152906040528051906020012014806102ed575060405160200161026e90613902565b604051602081830303815290604052805190602001206000803373ffffffffffffffffffffffffffffffffffffffff1673ffffffffffffffffffffffffffffffffffffffff1681526020019081526020016000206003016040516020016102d591906138d6565b60405160208183030381529060405280519060200120145b1561053b57600060048560405161030491906138bf565b908152602001604051809103902060009054906101000a900473ffffffffffffffffffffffffffffffffffffffff169050600360008273ffffffffffffffffffffffffffffffffffffffff1673ffffffffffffffffffffffffffffffffffffffff16815260200190815260200160002060009054906101000a900460ff166103c0577fe75a5d6121ee6548852395bc24a5a10e01b6ed1f79e626a79b69d68dd510f07c6040516103b390613a7b565b60405180910390a1610535565b600060018060008473ffffffffffffffffffffffffffffffffffffffff1673ffffffffffffffffffffffffffffffffffffffff168152602001908152602001600020805490506104109190613c62565b9050600160008373ffffffffffffffffffffffffffffffffffffffff1673ffffffffffffffffffffffffffffffffffffffff16815260200190815260200160002060405180608001604052808381526020018781526020018681526020018581525090806001815401808255809150506001900390600052602060002090600402016000909190919091506000820151816000015560208201518160010190805190602001906104c1929190612de0565b5060408201518160020190805190602001906104de929190612de0565b5060608201518160030190805190602001906104fb929190612de0565b5050507fe75a5d6121ee6548852395bc24a5a10e01b6ed1f79e626a79b69d68dd510f07c60405161052b90613a9b565b60405180910390a1505b50610571565b7fdc545edd238953a59eb2860e222a22cc50dc7e12259f919ca3e1bdc381844f8d60405161056890613afb565b60405180910390a15b50505050565b6060600360003373ffffffffffffffffffffffffffffffffffffffff1673ffffffffffffffffffffffffffffffffffffffff16815260200190815260200160002060009054906101000a900460ff1615610654573373ffffffffffffffffffffffffffffffffffffffff167ff8c247989dae272a44b5c75c77336431d18464b2652ff4078d407e50bb79d15360405161060f90613abb565b60405180910390a26040518060400160405280601781526020017f5573657220616c7265616479207265676973746572656400000000000000000081525090506109b7565b600073ffffffffffffffffffffffffffffffffffffffff1660048860405161067c91906138bf565b908152602001604051809103902060009054906101000a900473ffffffffffffffffffffffffffffffffffffffff1673ffffffffffffffffffffffffffffffffffffffff161461074f573373ffffffffffffffffffffffffffffffffffffffff167ff8c247989dae272a44b5c75c77336431d18464b2652ff4078d407e50bb79d15360405161070a90613b1b565b60405180910390a26040518060400160405280601381526020017f456d61696c20616c72656164792074616b656e0000000000000000000000000081525090506109b7565b6040518060e00160405280898152602001888152602001878152602001868152602001858152602001848152602001838152506000803373ffffffffffffffffffffffffffffffffffffffff1673ffffffffffffffffffffffffffffffffffffffff16815260200190815260200160002060008201518160000190805190602001906107dc929190612de0565b5060208201518160010190805190602001906107f9929190612de0565b506040820151816002019080519060200190610816929190612de0565b506060820151816003019080519060200190610833929190612de0565b506080820151816004019080519060200190610850929190612de0565b5060a0820151816005015560c0820151816006019080519060200190610877929190612de0565b509050506001600360003373ffffffffffffffffffffffffffffffffffffffff1673ffffffffffffffffffffffffffffffffffffffff16815260200190815260200160002060006101000a81548160ff021916908315150217905550336004886040516108e491906138bf565b908152602001604051809103902060006101000a81548173ffffffffffffffffffffffffffffffffffffffff021916908373ffffffffffffffffffffffffffffffffffffffff1602179055503373ffffffffffffffffffffffffffffffffffffffff167f48cac28ad4dc618e15f4c2dd5e97751182f166de97b25618318b2112aa951a2f88604051610976919061397e565b60405180910390a26040518060400160405280600f81526020017f557365722072656769737465726564000000000000000000000000000000000081525090505b979650505050505050565b6060806060600360003373ffffffffffffffffffffffffffffffffffffffff1673ffffffffffffffffffffffffffffffffffffffff16815260200190815260200160002060009054906101000a900460ff16610a79576040518060400160405280601681526020017f4163636f756e74206e6f742072656769737465726564000000000000000000008152506040518060200160405280600081525060405180602001604052806000815250925092509250610e53565b60008060003373ffffffffffffffffffffffffffffffffffffffff1673ffffffffffffffffffffffffffffffffffffffff1681526020019081526020016000206040518060e0016040529081600082018054610ad490613d6a565b80601f0160208091040260200160405190810160405280929190818152602001828054610b0090613d6a565b8015610b4d5780601f10610b2257610100808354040283529160200191610b4d565b820191906000526020600020905b815481529060010190602001808311610b3057829003601f168201915b50505050508152602001600182018054610b6690613d6a565b80601f0160208091040260200160405190810160405280929190818152602001828054610b9290613d6a565b8015610bdf5780601f10610bb457610100808354040283529160200191610bdf565b820191906000526020600020905b815481529060010190602001808311610bc257829003601f168201915b50505050508152602001600282018054610bf890613d6a565b80601f0160208091040260200160405190810160405280929190818152602001828054610c2490613d6a565b8015610c715780601f10610c4657610100808354040283529160200191610c71565b820191906000526020600020905b815481529060010190602001808311610c5457829003601f168201915b50505050508152602001600382018054610c8a90613d6a565b80601f0160208091040260200160405190810160405280929190818152602001828054610cb690613d6a565b8015610d035780601f10610cd857610100808354040283529160200191610d03565b820191906000526020600020905b815481529060010190602001808311610ce657829003601f168201915b50505050508152602001600482018054610d1c90613d6a565b80601f0160208091040260200160405190810160405280929190818152602001828054610d4890613d6a565b8015610d955780601f10610d6a57610100808354040283529160200191610d95565b820191906000526020600020905b815481529060010190602001808311610d7857829003601f168201915b5050505050815260200160058201548152602001600682018054610db890613d6a565b80601f0160208091040260200160405190810160405280929190818152602001828054610de490613d6a565b8015610e315780601f10610e0657610100808354040283529160200191610e31565b820191906000526020600020905b815481529060010190602001808311610e1457829003601f168201915b5050505050815250509050806020015181604001518260c00151935093509350505b909192565b6060806000600484604051610e6d91906138bf565b908152602001604051809103902060009054906101000a900473ffffffffffffffffffffffffffffffffffffffff169050604051602001610ead90613917565b604051602081830303815290604052805190602001206000803373ffffffffffffffffffffffffffffffffffffffff1673ffffffffffffffffffffffffffffffffffffffff168152602001908152602001600020600301604051602001610f1491906138d6565b604051602081830303815290604052805190602001201480610fbf5750604051602001610f4090613902565b604051602081830303815290604052805190602001206000803373ffffffffffffffffffffffffffffffffffffffff1673ffffffffffffffffffffffffffffffffffffffff168152602001908152602001600020600301604051602001610fa791906138d6565b60405160208183030381529060405280519060200120145b806110535750604051602001610fd4906138ed565b604051602081830303815290604052805190602001206000803373ffffffffffffffffffffffffffffffffffffffff1673ffffffffffffffffffffffffffffffffffffffff16815260200190815260200160002060030160405160200161103b91906138d6565b60405160208183030381529060405280519060200120145b156115b357600360008273ffffffffffffffffffffffffffffffffffffffff1673ffffffffffffffffffffffffffffffffffffffff16815260200190815260200160002060009054906101000a900460ff1661134157600160008273ffffffffffffffffffffffffffffffffffffffff1673ffffffffffffffffffffffffffffffffffffffff16815260200190815260200160002080805480602002602001604051908101604052809291908181526020016000905b828210156112fb57838290600052602060002090600402016040518060800160405290816000820154815260200160018201805461114690613d6a565b80601f016020809104026020016040519081016040528092919081815260200182805461117290613d6a565b80156111bf5780601f10611194576101008083540402835291602001916111bf565b820191906000526020600020905b8154815290600101906020018083116111a257829003601f168201915b505050505081526020016002820180546111d890613d6a565b80601f016020809104026020016040519081016040528092919081815260200182805461120490613d6a565b80156112515780601f1061122657610100808354040283529160200191611251565b820191906000526020600020905b81548152906001019060200180831161123457829003601f168201915b5050505050815260200160038201805461126a90613d6a565b80601f016020809104026020016040519081016040528092919081815260200182805461129690613d6a565b80156112e35780601f106112b8576101008083540402835291602001916112e3565b820191906000526020600020905b8154815290600101906020018083116112c657829003601f168201915b50505050508152505081526020019060010190611109565b5050505090506040518060400160405280601981526020017f50617469656e74206163636f756e74206e6f7420666f756e6400000000000000815250925092505061185f565b600160008273ffffffffffffffffffffffffffffffffffffffff1673ffffffffffffffffffffffffffffffffffffffff16815260200190815260200160002080805480602002602001604051908101604052809291908181526020016000905b828210156115935783829060005260206000209060040201604051806080016040529081600082015481526020016001820180546113de90613d6a565b80601f016020809104026020016040519081016040528092919081815260200182805461140a90613d6a565b80156114575780601f1061142c57610100808354040283529160200191611457565b820191906000526020600020905b81548152906001019060200180831161143a57829003601f168201915b5050505050815260200160028201805461147090613d6a565b80601f016020809104026020016040519081016040528092919081815260200182805461149c90613d6a565b80156114e95780601f106114be576101008083540402835291602001916114e9565b820191906000526020600020905b8154815290600101906020018083116114cc57829003601f168201915b5050505050815260200160038201805461150290613d6a565b80601f016020809104026020016040519081016040528092919081815260200182805461152e90613d6a565b801561157b5780601f106115505761010080835404028352916020019161157b565b820191906000526020600020905b81548152906001019060200180831161155e57829003601f168201915b505050505081525050815260200190600101906113a1565b50505050905060405180602001604052806000815250925092505061185f565b7fdc545edd238953a59eb2860e222a22cc50dc7e12259f919ca3e1bdc381844f8d6040516115e090613b5b565b60405180910390a1600160008273ffffffffffffffffffffffffffffffffffffffff1673ffffffffffffffffffffffffffffffffffffffff16815260200190815260200160002080805480602002602001604051908101604052809291908181526020016000905b8282101561183a57838290600052602060002090600402016040518060800160405290816000820154815260200160018201805461168590613d6a565b80601f01602080910402602001604051908101604052809291908181526020018280546116b190613d6a565b80156116fe5780601f106116d3576101008083540402835291602001916116fe565b820191906000526020600020905b8154815290600101906020018083116116e157829003601f168201915b5050505050815260200160028201805461171790613d6a565b80601f016020809104026020016040519081016040528092919081815260200182805461174390613d6a565b80156117905780601f1061176557610100808354040283529160200191611790565b820191906000526020600020905b81548152906001019060200180831161177357829003601f168201915b505050505081526020016003820180546117a990613d6a565b80601f01602080910402602001604051908101604052809291908181526020018280546117d590613d6a565b80156118225780601f106117f757610100808354040283529160200191611822565b820191906000526020600020905b81548152906001019060200180831161180557829003601f168201915b50505050508152505081526020019060010190611648565b505050509050604051806060016040528060368152602001613e9b6036913992509250505b915091565b60405160200161187390613917565b604051602081830303815290604052805190602001206000803373ffffffffffffffffffffffffffffffffffffffff1673ffffffffffffffffffffffffffffffffffffffff1681526020019081526020016000206003016040516020016118da91906138d6565b604051602081830303815290604052805190602001201480611985575060405160200161190690613902565b604051602081830303815290604052805190602001206000803373ffffffffffffffffffffffffffffffffffffffff1673ffffffffffffffffffffffffffffffffffffffff16815260200190815260200160002060030160405160200161196d91906138d6565b60405160208183030381529060405280519060200120145b15611d1457600060048660405161199c91906138bf565b908152602001604051809103902060009054906101000a900473ffffffffffffffffffffffffffffffffffffffff169050600360008273ffffffffffffffffffffffffffffffffffffffff1673ffffffffffffffffffffffffffffffffffffffff16815260200190815260200160002060009054906101000a900460ff16611a58577fd0a2b1347c29ed85ef3d53b680948b50fc2a2213e433194f55dcbb24e9f9f768604051611a4b90613a7b565b60405180910390a1611d0e565b600160008273ffffffffffffffffffffffffffffffffffffffff1673ffffffffffffffffffffffffffffffffffffffff16815260200190815260200160002080549050851115611adc577fd0a2b1347c29ed85ef3d53b680948b50fc2a2213e433194f55dcbb24e9f9f768604051611acf90613b3b565b60405180910390a1611d0d565b83600160008373ffffffffffffffffffffffffffffffffffffffff1673ffffffffffffffffffffffffffffffffffffffff168152602001908152602001600020600187611b299190613cb8565b81548110611b60577f4e487b7100000000000000000000000000000000000000000000000000000000600052603260045260246000fd5b90600052602060002090600402016001019080519060200190611b84929190612de0565b5082600160008373ffffffffffffffffffffffffffffffffffffffff1673ffffffffffffffffffffffffffffffffffffffff168152602001908152602001600020600187611bd29190613cb8565b81548110611c09577f4e487b7100000000000000000000000000000000000000000000000000000000600052603260045260246000fd5b90600052602060002090600402016002019080519060200190611c2d929190612de0565b5081600160008373ffffffffffffffffffffffffffffffffffffffff1673ffffffffffffffffffffffffffffffffffffffff168152602001908152602001600020600187611c7b9190613cb8565b81548110611cb2577f4e487b7100000000000000000000000000000000000000000000000000000000600052603260045260246000fd5b90600052602060002090600402016003019080519060200190611cd6929190612de0565b507fd0a2b1347c29ed85ef3d53b680948b50fc2a2213e433194f55dcbb24e9f9f768604051611d0490613adb565b60405180910390a15b5b50611d4a565b7fdc545edd238953a59eb2860e222a22cc50dc7e12259f919ca3e1bdc381844f8d604051611d4190613afb565b60405180910390a15b5050505050565b604051602001611d6090613917565b604051602081830303815290604052805190602001206000803373ffffffffffffffffffffffffffffffffffffffff1673ffffffffffffffffffffffffffffffffffffffff168152602001908152602001600020600301604051602001611dc791906138d6565b604051602081830303815290604052805190602001201480611e725750604051602001611df390613902565b604051602081830303815290604052805190602001206000803373ffffffffffffffffffffffffffffffffffffffff1673ffffffffffffffffffffffffffffffffffffffff168152602001908152602001600020600301604051602001611e5a91906138d6565b60405160208183030381529060405280519060200120145b15612363576000600483604051611e8991906138bf565b908152602001604051809103902060009054906101000a900473ffffffffffffffffffffffffffffffffffffffff169050600360008273ffffffffffffffffffffffffffffffffffffffff1673ffffffffffffffffffffffffffffffffffffffff16815260200190815260200160002060009054906101000a900460ff16611f45577fcd75b1a59a84902c3dcfa293e1e2c078fb939490206f7b1c531542b005d7102d604051611f3890613a7b565b60405180910390a161235d565b600160008273ffffffffffffffffffffffffffffffffffffffff1673ffffffffffffffffffffffffffffffffffffffff16815260200190815260200160002080549050821115611fc9577fcd75b1a59a84902c3dcfa293e1e2c078fb939490206f7b1c531542b005d7102d604051611fbc90613b3b565b60405180910390a161235c565b6000600183611fd89190613cb8565b90505b60018060008473ffffffffffffffffffffffffffffffffffffffff1673ffffffffffffffffffffffffffffffffffffffff168152602001908152602001600020805490506120299190613cb8565b81101561225f57600160008373ffffffffffffffffffffffffffffffffffffffff1673ffffffffffffffffffffffffffffffffffffffff16815260200190815260200160002060018261207c9190613c62565b815481106120b3577f4e487b7100000000000000000000000000000000000000000000000000000000600052603260045260246000fd5b9060005260206000209060040201600160008473ffffffffffffffffffffffffffffffffffffffff1673ffffffffffffffffffffffffffffffffffffffff1681526020019081526020016000208281548110612138577f4e487b7100000000000000000000000000000000000000000000000000000000600052603260045260246000fd5b906000526020600020906004020160008201548160000155600182018160010190805461216490613d6a565b61216f929190612e66565b50600282018160020190805461218490613d6a565b61218f929190612e66565b5060038201816003019080546121a490613d6a565b6121af929190612e66565b509050506001816121c09190613c62565b600160008473ffffffffffffffffffffffffffffffffffffffff1673ffffffffffffffffffffffffffffffffffffffff1681526020019081526020016000208281548110612237577f4e487b7100000000000000000000000000000000000000000000000000000000600052603260045260246000fd5b906000526020600020906004020160000181905550808061225790613d9c565b915050611fdb565b50600160008273ffffffffffffffffffffffffffffffffffffffff1673ffffffffffffffffffffffffffffffffffffffff1681526020019081526020016000208054806122d5577f4e487b7100000000000000000000000000000000000000000000000000000000600052603160045260246000fd5b60019003818190600052602060002090600402016000808201600090556001820160006123029190612ef3565b6002820160006123129190612ef3565b6003820160006123229190612ef3565b505090557fcd75b1a59a84902c3dcfa293e1e2c078fb939490206f7b1c531542b005d7102d60405161235390613a5b565b60405180910390a15b5b50612399565b7fdc545edd238953a59eb2860e222a22cc50dc7e12259f919ca3e1bdc381844f8d60405161239090613afb565b60405180910390a15b5050565b6060806000606080600360003373ffffffffffffffffffffffffffffffffffffffff1673ffffffffffffffffffffffffffffffffffffffff16815260200190815260200160002060009054906101000a900460ff1661246f5760006040518060400160405280601681526020017f4163636f756e74206e6f74207265676973746572656400000000000000000000815250906040518060200160405280600081525090604051806020016040528060008152506040518060200160405280600081525094509450945094509450612857565b60008060003373ffffffffffffffffffffffffffffffffffffffff1673ffffffffffffffffffffffffffffffffffffffff1681526020019081526020016000206040518060e00160405290816000820180546124ca90613d6a565b80601f01602080910402602001604051908101604052809291908181526020018280546124f690613d6a565b80156125435780601f1061251857610100808354040283529160200191612543565b820191906000526020600020905b81548152906001019060200180831161252657829003601f168201915b5050505050815260200160018201805461255c90613d6a565b80601f016020809104026020016040519081016040528092919081815260200182805461258890613d6a565b80156125d55780601f106125aa576101008083540402835291602001916125d5565b820191906000526020600020905b8154815290600101906020018083116125b857829003601f168201915b505050505081526020016002820180546125ee90613d6a565b80601f016020809104026020016040519081016040528092919081815260200182805461261a90613d6a565b80156126675780601f1061263c57610100808354040283529160200191612667565b820191906000526020600020905b81548152906001019060200180831161264a57829003601f168201915b5050505050815260200160038201805461268090613d6a565b80601f01602080910402602001604051908101604052809291908181526020018280546126ac90613d6a565b80156126f95780601f106126ce576101008083540402835291602001916126f9565b820191906000526020600020905b8154815290600101906020018083116126dc57829003601f168201915b5050505050815260200160048201805461271290613d6a565b80601f016020809104026020016040519081016040528092919081815260200182805461273e90613d6a565b801561278b5780601f106127605761010080835404028352916020019161278b565b820191906000526020600020905b81548152906001019060200180831161276e57829003601f168201915b50505050508152602001600582015481526020016006820180546127ae90613d6a565b80601f01602080910402602001604051908101604052809291908181526020018280546127da90613d6a565b80156128275780601f106127fc57610100808354040283529160200191612827565b820191906000526020600020905b81548152906001019060200180831161280a57829003601f168201915b5050505050815250509050806000015181608001518260a001518360200151846060015195509550955095509550505b9091929394565b600560009054906101000a900473ffffffffffffffffffffffffffffffffffffffff1681565b606080600360003373ffffffffffffffffffffffffffffffffffffffff1673ffffffffffffffffffffffffffffffffffffffff16815260200190815260200160002060009054906101000a900460ff16612b6f57600160003373ffffffffffffffffffffffffffffffffffffffff1673ffffffffffffffffffffffffffffffffffffffff16815260200190815260200160002080805480602002602001604051908101604052809291908181526020016000905b82821015612b2a57838290600052602060002090600402016040518060800160405290816000820154815260200160018201805461297590613d6a565b80601f01602080910402602001604051908101604052809291908181526020018280546129a190613d6a565b80156129ee5780601f106129c3576101008083540402835291602001916129ee565b820191906000526020600020905b8154815290600101906020018083116129d157829003601f168201915b50505050508152602001600282018054612a0790613d6a565b80601f0160208091040260200160405190810160405280929190818152602001828054612a3390613d6a565b8015612a805780601f10612a5557610100808354040283529160200191612a80565b820191906000526020600020905b815481529060010190602001808311612a6357829003601f168201915b50505050508152602001600382018054612a9990613d6a565b80601f0160208091040260200160405190810160405280929190818152602001828054612ac590613d6a565b8015612b125780601f10612ae757610100808354040283529160200191612b12565b820191906000526020600020905b815481529060010190602001808311612af557829003601f168201915b50505050508152505081526020019060010190612938565b5050505090506040518060400160405280601681526020017f4163636f756e74206e6f7420726567697374657265640000000000000000000081525091509150612ddc565b600160003373ffffffffffffffffffffffffffffffffffffffff1673ffffffffffffffffffffffffffffffffffffffff16815260200190815260200160002080805480602002602001604051908101604052809291908181526020016000905b82821015612dc1578382906000526020600020906004020160405180608001604052908160008201548152602001600182018054612c0c90613d6a565b80601f0160208091040260200160405190810160405280929190818152602001828054612c3890613d6a565b8015612c855780601f10612c5a57610100808354040283529160200191612c85565b820191906000526020600020905b815481529060010190602001808311612c6857829003601f168201915b50505050508152602001600282018054612c9e90613d6a565b80601f0160208091040260200160405190810160405280929190818152602001828054612cca90613d6a565b8015612d175780601f10612cec57610100808354040283529160200191612d17565b820191906000526020600020905b815481529060010190602001808311612cfa57829003601f168201915b50505050508152602001600382018054612d3090613d6a565b80601f0160208091040260200160405190810160405280929190818152602001828054612d5c90613d6a565b8015612da95780601f10612d7e57610100808354040283529160200191612da9565b820191906000526020600020905b815481529060010190602001808311612d8c57829003601f168201915b50505050508152505081526020019060010190612bcf565b50505050905060405180602001604052806000815250915091505b9091565b828054612dec90613d6a565b90600052602060002090601f016020900481019282612e0e5760008555612e55565b82601f10612e2757805160ff1916838001178555612e55565b82800160010185558215612e55579182015b82811115612e54578251825591602001919060010190612e39565b5b509050612e629190612f33565b5090565b828054612e7290613d6a565b90600052602060002090601f016020900481019282612e945760008555612ee2565b82601f10612ea55780548555612ee2565b82800160010185558215612ee257600052602060002091601f016020900482015b82811115612ee1578254825591600101919060010190612ec6565b5b509050612eef9190612f33565b5090565b508054612eff90613d6a565b6000825580601f10612f115750612f30565b601f016020900490600052602060002090810190612f2f9190612f33565b5b50565b5b80821115612f4c576000816000905550600101612f34565b5090565b6000612f63612f5e84613bac565b613b7b565b905082815260208101848484011115612f7b57600080fd5b612f86848285613d28565b509392505050565b600082601f830112612f9f57600080fd5b8135612faf848260208601612f50565b91505092915050565b600081359050612fc781613e83565b92915050565b600060208284031215612fdf57600080fd5b600082013567ffffffffffffffff811115612ff957600080fd5b61300584828501612f8e565b91505092915050565b6000806000806080858703121561302457600080fd5b600085013567ffffffffffffffff81111561303e57600080fd5b61304a87828801612f8e565b945050602085013567ffffffffffffffff81111561306757600080fd5b61307387828801612f8e565b935050604085013567ffffffffffffffff81111561309057600080fd5b61309c87828801612f8e565b925050606085013567ffffffffffffffff8111156130b957600080fd5b6130c587828801612f8e565b91505092959194509250565b600080600080600080600060e0888a0312156130ec57600080fd5b600088013567ffffffffffffffff81111561310657600080fd5b6131128a828b01612f8e565b975050602088013567ffffffffffffffff81111561312f57600080fd5b61313b8a828b01612f8e565b965050604088013567ffffffffffffffff81111561315857600080fd5b6131648a828b01612f8e565b955050606088013567ffffffffffffffff81111561318157600080fd5b61318d8a828b01612f8e565b945050608088013567ffffffffffffffff8111156131aa57600080fd5b6131b68a828b01612f8e565b93505060a06131c78a828b01612fb8565b92505060c088013567ffffffffffffffff8111156131e457600080fd5b6131f08a828b01612f8e565b91505092959891949750929550565b6000806040838503121561321257600080fd5b600083013567ffffffffffffffff81111561322c57600080fd5b61323885828601612f8e565b925050602061324985828601612fb8565b9150509250929050565b600080600080600060a0868803121561326b57600080fd5b600086013567ffffffffffffffff81111561328557600080fd5b61329188828901612f8e565b95505060206132a288828901612fb8565b945050604086013567ffffffffffffffff8111156132bf57600080fd5b6132cb88828901612f8e565b935050606086013567ffffffffffffffff8111156132e857600080fd5b6132f488828901612f8e565b925050608086013567ffffffffffffffff81111561331157600080fd5b61331d88828901612f8e565b9150509295509295909350565b60006133368383613830565b905092915050565b61334781613cec565b82525050565b600061335882613c01565b6133628185613c24565b93508360208202850161337485613bdc565b8060005b858110156133b05784840389528151613391858261332a565b945061339c83613c17565b925060208a01995050600181019050613378565b50829750879550505050505092915050565b60006133cd82613c0c565b6133d78185613c35565b93506133e7818560208601613d37565b6133f081613e72565b840191505092915050565b600061340682613c0c565b6134108185613c46565b9350613420818560208601613d37565b61342981613e72565b840191505092915050565b600061343f82613c0c565b6134498185613c57565b9350613459818560208601613d37565b80840191505092915050565b6000815461347281613d6a565b61347c8186613c57565b9450600182166000811461349757600181146134a8576134db565b60ff198316865281860193506134db565b6134b185613bec565b60005b838110156134d3578154818901526001820191506020810190506134b4565b838801955050505b50505092915050565b60006134f1601783613c46565b91507f4d65646963616c207265636f72642064656c657465642e0000000000000000006000830152602082019050919050565b6000613531600583613c57565b91507f6e757273650000000000000000000000000000000000000000000000000000006000830152600582019050919050565b6000613571601983613c46565b91507f50617469656e74206163636f756e74206e6f7420666f756e64000000000000006000830152602082019050919050565b60006135b1601483613c46565b91507f4d65646963616c207265636f72642061646465640000000000000000000000006000830152602082019050919050565b60006135f1601783613c46565b91507f5573657220616c726561647920726567697374657265640000000000000000006000830152602082019050919050565b6000613631601683613c46565b91507f4d65646963616c207265636f72642075706461746564000000000000000000006000830152602082019050919050565b6000613671602e83613c46565b91507f4f6e6c792061646d696e73206f7220646f63746f72732063616e20706572666f60008301527f726d207468697320616374696f6e0000000000000000000000000000000000006020830152604082019050919050565b60006136d7601383613c46565b91507f456d61696c20616c72656164792074616b656e000000000000000000000000006000830152602082019050919050565b6000613717601883613c46565b91507f5265636f726420494420646f6573206e6f7420657869737400000000000000006000830152602082019050919050565b6000613757600683613c57565b91507f646f63746f7200000000000000000000000000000000000000000000000000006000830152600682019050919050565b6000613797600583613c57565b91507f61646d696e0000000000000000000000000000000000000000000000000000006000830152600582019050919050565b60006137d7603683613c46565b91507f4f6e6c792061646d696e732c20646f63746f7273206f72206e7572736573206360008301527f616e20706572666f726d207468697320616374696f6e000000000000000000006020830152604082019050919050565b600060808301600083015161384860008601826138a1565b506020830151848203602086015261386082826133c2565b9150506040830151848203604086015261387a82826133c2565b9150506060830151848203606086015261389482826133c2565b9150508091505092915050565b6138aa81613d1e565b82525050565b6138b981613d1e565b82525050565b60006138cb8284613434565b915081905092915050565b60006138e28284613465565b915081905092915050565b60006138f882613524565b9150819050919050565b600061390d8261374a565b9150819050919050565b60006139228261378a565b9150819050919050565b6000602082019050613941600083018461333e565b92915050565b60006040820190508181036000830152613961818561334d565b9050818103602083015261397581846133fb565b90509392505050565b6000602082019050818103600083015261399881846133fb565b905092915050565b600060608201905081810360008301526139ba81866133fb565b905081810360208301526139ce81856133fb565b905081810360408301526139e281846133fb565b9050949350505050565b600060a0820190508181036000830152613a0681886133fb565b90508181036020830152613a1a81876133fb565b9050613a2960408301866138b0565b8181036060830152613a3b81856133fb565b90508181036080830152613a4f81846133fb565b90509695505050505050565b60006020820190508181036000830152613a74816134e4565b9050919050565b60006020820190508181036000830152613a9481613564565b9050919050565b60006020820190508181036000830152613ab4816135a4565b9050919050565b60006020820190508181036000830152613ad4816135e4565b9050919050565b60006020820190508181036000830152613af481613624565b9050919050565b60006020820190508181036000830152613b1481613664565b9050919050565b60006020820190508181036000830152613b34816136ca565b9050919050565b60006020820190508181036000830152613b548161370a565b9050919050565b60006020820190508181036000830152613b74816137ca565b9050919050565b6000604051905081810181811067ffffffffffffffff82111715613ba257613ba1613e43565b5b8060405250919050565b600067ffffffffffffffff821115613bc757613bc6613e43565b5b601f19601f8301169050602081019050919050565b6000819050602082019050919050565b60008190508160005260206000209050919050565b600081519050919050565b600081519050919050565b6000602082019050919050565b600082825260208201905092915050565b600082825260208201905092915050565b600082825260208201905092915050565b600081905092915050565b6000613c6d82613d1e565b9150613c7883613d1e565b9250827fffffffffffffffffffffffffffffffffffffffffffffffffffffffffffffffff03821115613cad57613cac613de5565b5b828201905092915050565b6000613cc382613d1e565b9150613cce83613d1e565b925082821015613ce157613ce0613de5565b5b828203905092915050565b6000613cf782613cfe565b9050919050565b600073ffffffffffffffffffffffffffffffffffffffff82169050919050565b6000819050919050565b82818337600083830152505050565b60005b83811015613d55578082015181840152602081019050613d3a565b83811115613d64576000848401525b50505050565b60006002820490506001821680613d8257607f821691505b60208210811415613d9657613d95613e14565b5b50919050565b6000613da782613d1e565b91507fffffffffffffffffffffffffffffffffffffffffffffffffffffffffffffffff821415613dda57613dd9613de5565b5b600182019050919050565b7f4e487b7100000000000000000000000000000000000000000000000000000000600052601160045260246000fd5b7f4e487b7100000000000000000000000000000000000000000000000000000000600052602260045260246000fd5b7f4e487b7100000000000000000000000000000000000000000000000000000000600052604160045260246000fd5b6000601f19601f8301169050919050565b613e8c81613d1e565b8114613e9757600080fd5b5056fe4f6e6c792061646d696e732c20646f63746f7273206f72206e75727365732063616e20706572666f726d207468697320616374696f6ea2646970667358221220a0b471bdeb448444496ef37184c4fd952ed884a64a9d47393c9adc30fb514e6664736f6c63430008000033",
  "immutableReferences": {},
  "source": "// SPDX-License-Identifier: MIT\r\npragma solidity ^0.8.0;\r\n\r\ncontract HealthcareAccessControl {\r\n    struct MedicalRecord {\r\n        uint recordId;\r\n        string description;\r\n        string date;\r\n        string doctor;\r\n    }\r\n    \r\n    struct User {\r\n        string name;\r\n        string email;\r\n        string password;\r\n        string role; \r\n        string gender;\r\n        uint age;\r\n        string secret; // 2FA secret code\r\n    }\r\n\r\n    mapping(address => User) private users;\r\n    mapping(address => MedicalRecord[]) private medicalRecords;\r\n    mapping(address => bool) private owner;\r\n    mapping(address => bool) private registered;\r\n    mapping(string => address) private emails;\r\n    address public administrator;\r\n\r\n    // constructor() {\r\n    //     administrator = msg.sender; // Deployer of the contract is the initial administrator\r\n    // }\r\n    \r\n    event accessError (string reason);\r\n    event UserRegistered(address indexed user, string name);\r\n    event RegistrationFailed(address indexed user, string reason);\r\n    function register(string memory _name, string memory _email, string memory _password, string memory _role, string memory _gender, uint _age, string memory _secret) public returns (string memory) {\r\n        // if (msg.sender != administrator) {       // irl situation only administrator can register, but this function use current user address for registration, so not applcition\r\n        //     emit accessError(\"Only administrator can perform this action\");\r\n        //     return (\"Only administrator can perform this action\");\r\n        // }\r\n        \r\n        // Check if metamask account is already registered\r\n        if (registered[msg.sender]) {\r\n            emit RegistrationFailed(msg.sender, \"User already registered\");\r\n            return \"User already registered\";\r\n        }\r\n\r\n        // Check if email is already taken\r\n        if (emails[_email] != address(0)) {\r\n            emit RegistrationFailed(msg.sender, \"Email already taken\");\r\n            return \"Email already taken\";\r\n        }\r\n\r\n        // // Validate gender (must be either \"male\" or \"female\")\r\n        // if (!(keccak256(abi.encodePacked(_gender)) == keccak256(abi.encodePacked(\"male\")) ||\r\n        //       keccak256(abi.encodePacked(_gender)) == keccak256(abi.encodePacked(\"female\")))) {\r\n        //     emit RegistrationFailed(msg.sender, \"Gender must be male or female\");\r\n        //     return \"Gender must be male or female\";\r\n        // }\r\n\r\n        // // Validate role (must be either \"doctor\" or \"patient\")\r\n        // if (!(keccak256(abi.encodePacked(_role)) == keccak256(abi.encodePacked(\"admin\")) ||\r\n        //       keccak256(abi.encodePacked(_role)) == keccak256(abi.encodePacked(\"doctor\")) ||\r\n        //       keccak256(abi.encodePacked(_role)) == keccak256(abi.encodePacked(\"nurse\")) ||\r\n        //       keccak256(abi.encodePacked(_role)) == keccak256(abi.encodePacked(\"patient\")))) {\r\n        //     emit RegistrationFailed(msg.sender, \"Role must be admin, doctor, nurse or patient\");\r\n        //     return \"Role must be admin, doctor, nurse or patient\";\r\n        // }\r\n\r\n        // Save user data\r\n        users[msg.sender] = User(_name, _email, _password, _role, _gender, _age, _secret);\r\n        registered[msg.sender] = true;\r\n        emails[_email] = msg.sender;\r\n\r\n        // Emit success event\r\n        emit UserRegistered(msg.sender, _email);\r\n        return \"User registered\";\r\n    }\r\n\r\n    function login() public view returns (string memory, string memory, string memory) {\r\n        if (!registered[msg.sender]) {\r\n            return (\"Account not registered\", \"\", \"\");\r\n        }\r\n\r\n        User memory user = users[msg.sender];\r\n        return (user.email, user.password, user.secret);\r\n    }\r\n\r\n    function getProfile() public view returns (string memory, string memory, uint, string memory, string memory) {\r\n        if (!registered[msg.sender]) {\r\n            return (\"Account not registered\", \"\", 0, \"\", \"\");\r\n        }\r\n        User memory user = users[msg.sender];\r\n        return (user.name, user.gender, user.age, user.email, user.role);\r\n    }\r\n\r\n    function getSelfMedicalRecords() public view returns (MedicalRecord[] memory, string memory) {      // for patients to view their own records (need chg in js code)\r\n        if (!registered[msg.sender]) {\r\n            return (medicalRecords[msg.sender], \"Account not registered\");\r\n        }\r\n        return (medicalRecords[msg.sender], \"\");\r\n    }\r\n\r\n    function getMedicalRecords(string memory _email) public returns (MedicalRecord[] memory, string memory) {\r\n        address _userAddress = emails[_email];\r\n        if (\r\n            keccak256(abi.encodePacked(users[msg.sender].role)) == keccak256(abi.encodePacked(\"admin\")) ||\r\n            keccak256(abi.encodePacked(users[msg.sender].role)) == keccak256(abi.encodePacked(\"doctor\")) ||\r\n            keccak256(abi.encodePacked(users[msg.sender].role)) == keccak256(abi.encodePacked(\"nurse\"))\r\n            ) {\r\n                if (!registered[_userAddress]) {\r\n                    return (medicalRecords[_userAddress], \"Patient account not found\");\r\n                }\r\n                return (medicalRecords[_userAddress], \"\");\r\n        } else {\r\n            emit accessError(\"Only admins, doctors or nurses can perform this action\");\r\n            return (medicalRecords[_userAddress],\"Only admins, doctors or nurses can perform this action\");\r\n        }\r\n    }\r\n\r\n    // Events emitted when a medical record is added, edited or deleted.\r\n    event MedicalRecordAdded(string description);\r\n    event MedicalRecordEdited(string description);\r\n    event MedicalRecordDeleted(string description);\r\n\r\n    // Function to add a medical record to a specific patient\r\n    function addMedicalRecord(string memory _email, string memory _description, string memory _date, string memory _doctor) public {\r\n        if (\r\n            keccak256(abi.encodePacked(users[msg.sender].role)) == keccak256(abi.encodePacked(\"admin\")) ||\r\n            keccak256(abi.encodePacked(users[msg.sender].role)) == keccak256(abi.encodePacked(\"doctor\"))\r\n            ) {\r\n            address _userAddress = emails[_email];\r\n            if (!registered[_userAddress]) {\r\n                emit MedicalRecordAdded (\"Patient account not found\");\r\n            } else {\r\n                uint _recordId = medicalRecords[_userAddress].length+1;\r\n                medicalRecords[_userAddress].push(MedicalRecord(_recordId, _description, _date, _doctor));\r\n                emit MedicalRecordAdded(\"Medical record added\");\r\n            }\r\n        } else {\r\n            emit accessError(\"Only admins or doctors can perform this action\");\r\n            // return (\"Only doctors or nurses can perform this action\");\r\n        }\r\n    }\r\n\r\n    // Function to edit a medical record with specific recordId\r\n    function editMedicalRecord(string memory _email, uint _recordId, string memory _description, string memory _date, string memory _doctor) public {\r\n        if (\r\n            keccak256(abi.encodePacked(users[msg.sender].role)) == keccak256(abi.encodePacked(\"admin\")) ||\r\n            keccak256(abi.encodePacked(users[msg.sender].role)) == keccak256(abi.encodePacked(\"doctor\"))\r\n            ) {\r\n            address _userAddress = emails[_email];\r\n            if (!registered[_userAddress]) {\r\n                emit MedicalRecordEdited (\"Patient account not found\");\r\n            } else if (_recordId > medicalRecords[_userAddress].length) {\r\n                emit MedicalRecordEdited ('Record ID does not exist');\r\n            } else {          \r\n                medicalRecords[_userAddress][_recordId-1].description = _description;\r\n                medicalRecords[_userAddress][_recordId-1].date = _date;\r\n                medicalRecords[_userAddress][_recordId-1].doctor = _doctor;\r\n                emit MedicalRecordEdited('Medical record updated');\r\n            }\r\n        } else {\r\n            emit accessError(\"Only admins or doctors can perform this action\");\r\n            // return (\"Only doctors or nurses can perform this action\");\r\n        }\r\n    }\r\n\r\n    // Function to delete a medical record with specific recordId\r\n    function deleteMedicalRecord(string memory _email, uint recordId) public {    \r\n        if (\r\n            keccak256(abi.encodePacked(users[msg.sender].role)) == keccak256(abi.encodePacked(\"admin\")) ||\r\n            keccak256(abi.encodePacked(users[msg.sender].role)) == keccak256(abi.encodePacked(\"doctor\"))\r\n            ) {\r\n            address _userAddress = emails[_email];\r\n            if (!registered[_userAddress]) {\r\n                emit MedicalRecordDeleted (\"Patient account not found\");\r\n            } else if (recordId > medicalRecords[_userAddress].length){\r\n                emit MedicalRecordDeleted(\"Record ID does not exist\");\r\n            } else {\r\n                // Move the last element to the position of the element to delete\r\n                for (uint i = recordId-1; i < medicalRecords[_userAddress].length-1; i++) {\r\n                    medicalRecords[_userAddress][i] = medicalRecords[_userAddress][i+1];\r\n                    medicalRecords[_userAddress][i].recordId = i+1;\r\n                }\r\n                // medicalRecords[_userAddress][recordId] = medicalRecords[_userAddress][medicalRecords[_userAddress].length - 1];\r\n                // Remove the last element\r\n                medicalRecords[_userAddress].pop();\r\n                emit MedicalRecordDeleted('Medical record deleted.');\r\n            }\r\n        } else {\r\n            emit accessError(\"Only admins or doctors can perform this action\");\r\n            // return (\"Only doctors or nurses can perform this action\");\r\n        }\r\n    }\r\n}\r\n",
  "sourcePath": "D:\\leptop\\ACS\\Assignment\\my-websitefinal2\\my-website\\contracts\\contract.sol",
  "compiler": {
    "name": "solc",
    "version": "0.8.0+commit.c7dfd78e.Emscripten.clang"
  },
  "schemaVersion": "3.4.16",
  "updatedAt": "2024-07-09T11:29:01.145Z",
  "networkType": "ethereum",
  "devdoc": {
    "kind": "dev",
    "methods": {},
    "version": 1
  },
  "userdoc": {
    "kind": "user",
    "methods": {},
    "version": 1
  }
}